:100000000C94CD040C94EA040C94EA040C94903003
:100010000C94EA040C94EA040C94EA040C94EA04A8
:100020000C94EA040C94EA040C945B190C941719D0
:100030000C9428280C94EA040C94EA040C94EA0426
:100040000C94EA040C94EA040C94EA040C94EA0478
:100050000C94EA040C94341A0C94EA040C94EA0408
:100060000C94EA040C94EA040C94EA040C94EA0458
:100070000C94EA040C94EA040C94EA040C94EA0448
:100080000C94EA040C94EA040C94EA040C94EA0438
:100090000C94EA040C94EA040C94EA040C94EA0428
:1000A0000C94EA040C94EA040C94EA040501090295
:1000B000A10185020901A1000509190129081500FE
:1000C0002501950875018102050109300931158165
:1000D000257F95027508810609381581257F9501D0
:1000E00075088106050C0A38021581257F95017572
:1000F000088106C0C00660FF0961A1010962150000
:1001000026FF009520750881020963150026FF006F
:10011000952075089102C005010906A1010507197E
:10012000E029E71500250195087501810295017503
:100130000881010507190029FF150026FF00950613
:100140007508810005081901290515002501950587
:1001500075019102950175039101C0000000000036
:10016000000000000000000000000000000000008F
:100170000000000000000000000000000000007E01
:100180000F00D4FFFFFFC700000078000000000050
:100190000000002A2B2800000000000000000000E2
:1001A00000000000000029000000002C1E34202167
:1001B0002224342627252E362D3738271E1F2021AE
:1001C00022232425263333362E37381F040506070D
:1001D00008090A0B0C0D0E0F101112131415161727
:1001E00018191A1B1C1D2F3130232D350405060745
:1001F00008090A0B0C0D0E0F101112131415161707
:1002000018191A1B1C1D2F3130354C61626364654F
:10021000666768696A6B6C6D6E6F70717273747506
:10022000767778797A313233343536373839305217
:100230004542545F2D3D5B5D5C233B27602C2E2F98
:1002400000DA0281FFD9F1DB20A4A62EAF00A0C006
:10025000D30000A1C8D30000AED580A81F408D14E4
:10026000200000010101010101010101020202025D
:100270000202020202030303030303030304040450
:100280000404040405050505050606060606070719
:1002900007070708080808090909090A0A0A0B0BD1
:1002A0000B0C0C0C0D0D0D0E0E0E0F0F0F10101170
:1002B00011111212131314141515161617171818F6
:1002C00019191A1A1B1B1C1D1D1E1E1F202021225E
:1002D00022232424252626272829292A2B2C2D2DA4
:1002E0002E2F30313232333435363738393A3B3CC1
:1002F0003D3E3F404142434445464748494A4C4DB4
:100300004E4F50515354555658595A5B5D5E5F617C
:100310006264656668696B6C6D6F7072737577780F
:100320007A7B7D7E8082838587888A8C8E8F91936D
:100330009596989A9C9EA0A2A3A5A7A9ABADAFB194
:10034000B3B5B7BABCBEC0C2C4C6C9CBCDCFD1D479
:10035000D6D8DBDDDFE2E4E7E9EBEEF0F3F5F8FA1F
:10036000FDFFFFAA7F554000AF00AE202000BABBC2
:10037000004B657920B10020C0C100BEBF00484FCE
:10038000005654003030200020202020B1BCBD0099
:1003900042616C6CB100B4B500B2B300C2C3004C92
:1003A000B6B772B100202000290014001A0008001E
:1003B000150017002B0004001600070009000A00B2
:1003C000E1001D001B000600190005000000E2000E
:1003D000E30091212C4190434C00130012000C00CB
:1003E00018001C00240233000F000E000D000B004B
:1003F000870038003700360010001100000046006A
:10040000E600913128422A000F7E3A003B003C0072
:100410003D003E000D7E01000100520028004C000E
:100420000E7E0100500051004F002A000000010024
:1004300001000100010001004400430042004100AE
:1004400040003F004500D300D2005200D1004B00D5
:10045000010001004F00510050004E00000001005B
:100460000100010001000100010034022400250008
:100470002600250201003302210022002300300063
:1004800001002D021E001F00200030020000270086
:100490003700010001000100010021022F002302AA
:1004A0001E0226021F02340020022E022D003200FE
:1004B000890238022F022E0087023202000001005A
:1004C0000100010001004C0020780A7E0B7E0C7EAA
:1004D0000100010021782378257827780100087E23
:1004E00022782478267828780100097E0000007C94
:1004F000007E01000100010030782F782E782D78E1
:100500002C782B78010001003478337832783178F8
:10051000017E0100047E027E037E057E0000007CD9
:10052000007E01000100010009025B00030100A040
:10053000FA09040000010301010009211101000171
:100540002244000705810308000109040100020399
:100550000000000921110100012222000705820389
:100560002000010705030320000109040200010324
:100570000000000921110100012249000705840340
:100580002000011201000200000008575900040079
:10059000010102000114034B006500790062006153
:1005A000006C006C00340034000000100359006F30
:1005B0000077006B0065006500730000000403090C
:1005C0000400000000000000002F000000000700F1
:1005D000070000123F123F1200242A7F2A12003621
:1005E000091E241B001826291228000000070000FD
:1005F00000001E214000000040211E000014083EA3
:1006000008140008083E08080000003070000008C8
:10061000080808080000003030000020100C02011B
:10062000001E2925231E0000223F20000022312920
:10063000292600122125251A001814123F10001730
:1006400025252518001E252525180001310905033B
:10065000001A2525251A00062929291E0000003325
:100660003300000000337300000814142222001429
:100670001414141400222214140800020129050283
:10068000003E59555D3E003816111638003F2525AD
:10069000251A001E21212112003F2121211E003F89
:1006A00025252521003F09090901001E2121291ABC
:1006B000003F0404043F0000213F210000102020DF
:1006C000201F003F040C1221003F20202020003F6B
:1006D0000204023F003F020C103F001E2121211E98
:1006E000003F09090906001E2129112E003F0909B2
:1006F00019260012252529120001013F0101001FC2
:100700002020201F000718201807000F300C300F82
:100710000021120C122100030438040300312925A2
:10072000232100007F4141000001020C1020000045
:1007300041417F000004020102040040404040406B
:1007400000000103040000102A2A2A3C003F242252
:10075000221C001C22222224001C2222243F001CD6
:100760002A2A2A0C0000043E0505000C5252543E71
:10077000003F080404380000003D00000020404015
:100780003D00003F080814220000013F2000003E09
:10079000023C023C003E0402023C001C2222221CBD
:1007A000007E1422221C001C2222147E003E040221
:1007B000020400242A2A2A120000021F2200001E1E
:1007C0002020103E000618201806000E300C300EB7
:1007D000002214081422000E5050483E0022322AF3
:1007E00026220008087741410000007F00000041F8
:1007F0004177080800180408100C000000000000F1
:1008000000000000000000000000000000C0F0F840
:100810008C86C6E7FFFFFFFFFFFFFEFCFCF8E080D1
:10082000000000F0F0F00000C0E0F0707000000088
:1008300000000000000000000000000000000000B8
:10084000000000F8F8F800000000000000000000C0
:10085000000000000000000000F8F8F80000F8F8C0
:10086000F8000000000080E07078686C64C7C7C7BB
:10087000C7C7C7E73F1F0F3FFFFFFFFFFFFF3F0F48
:10088000000000FFFFFF1E3FFFF3E1800000F8FCC7
:10089000FE3636363EBCB8000E3EFEF080F0FE3E20
:1008A0000E0000FFFFFF060606FEFEFC7000E6F6E7
:1008B000F63636FEFEFC000000FFFFFF0000FFFFE3
:1008C000FF000000003C7F6360E0C0C0C0C0C0C04B
:1008D000C0C0FFFFC06030180F0303030100000019
:1008E00000000003030300000003030303000103EF
:1008F00003030303030301007070393F1F07010066
:1009000000000001030303030303030100000103CC
:1009100003030303030100000003030300000303B8
:10092000030010101000000000550000003E635D41
:100930005D637F417B77413E00001C22221C003E0C
:100940000A003E0A00322A3C0026281E001C2A2CDF
:100950000000003F09360000001E212100000000B9
:10096000003F0837001E2121001E2121003F0906FB
:1009700000213F2100222519001E2121003F0936B8
:10098000003F211E00213F21000F300F003E093E95
:10099000003F063F003F2020000011241FBECFEF84
:1009A000DAE0DEBFCDBF11E0A0E0B1E0EEE5F6E6B3
:1009B00002C005900D92A03EB107D9F726E0A0EE47
:1009C000B1E001C01D92A032B207E1F70E944F28AA
:1009D0000C94DF320C940000482F20910A0490916F
:1009E000D10357E0291302C080E0089530E0529F00
:1009F000F001539FF00D1124EE52FC4F81816813DA
:100A000006C08081481303C085818111EECF2F5F1E
:100A10003F4F2770E7CFE8EDF0E080818E7F808345
:100A20001092E2001092DA001092E100A0EEB0E025
:100A30008C9181608C9380818F77808319BCA7ED26
:100A4000B0E08C918E7F8C9380818F7E808310921A
:100A5000B90308952091E4003091E50095E6A901DD
:100A60002091EC00822F817020FF06C08091E80069
:100A700080FF06C080E008952091E80022FD1AC0A2
:100A80008091C703882389F0853089F08091EB003D
:100A900085FD0FC02091E4003091E5004217530717
:100AA000F9F29150E1F684E0089582E0089583E040
:100AB000089581E008958091C90387FF13C0809154
:100AC000E80082FF06C08091E8008B778093E80001
:100AD00004C08091C7038111F2CF08958091C703AC
:100AE0008823D9F38091E80080FFF8CF8091E80057
:100AF0008E77ECCF982F9093E900242F762F50E03B
:100B0000891731F07091EC002091ED005091F000C8
:100B100021FD07C09F5F973071F78093E90081E066
:100B200008953091EB003E7F3093EB003091ED0063
:100B30003D7F3093ED003091EB0031603093EB005E
:100B40007093EC002093ED005093F0002091EE00A4
:100B500027FDE0CF80E00895B0E0A0E0E2EBF5E013
:100B60000C94CA31C8EDD0E088818F7E8883E7ED90
:100B7000F0E080818160808384E082BF81E08093A7
:100B8000B90388818E7F888302EE10E0F80110821D
:100B90001092DA0081EEC82ED12CF60110828881E5
:100BA0008F77888388818068888388818F7D888318
:100BB00019BC1092C7031092C8031092C60310927A
:100BC000C50390EEE92EF12CF70180818B7F8083A5
:100BD00088818160888342E060E080E00E947A053D
:100BE000F60180818E7F8083F8018081816080831F
:100BF000808188608083F70180818E7F80838881F7
:100C000080618883CDB7DEB7E8E00C94E631FC0163
:100C10008091CF039091D00386179707A0F06115BC
:100C2000710529F49091E8009E779093E80090E098
:100C30006115710551F4911108C08091E80082FF9F
:100C400034C080E00895BC01F2CF8091C7038823AF
:100C5000C1F18530C1F18091E80083FD30C0809101
:100C6000E80082FDEACF8091E80080FFE1CF80912B
:100C7000F3002091F200382F6115710519F028302A
:100C8000310558F091E02830310509F090E02091CD
:100C9000E8002E772093E800CBCF81918093F1007C
:100CA000615071092F5F3F4FE7CF8091C7038823C1
:100CB00041F0853041F08091E80083FFBECF81E0B4
:100CC000089582E0089583E0089508958091BC031B
:100CD000089587E797E7909301088093000888E1DB
:100CE0009AE00FB6F894A895809360000FBE909399
:100CF0006000FFCF2FB7F8946091B5037091B603F1
:100D00008091B7039091B8032FBF0895FC01680F3D
:100D1000791F8FEF91E32191822728E030E087FF50
:100D200009C0880F892721503109C9F7E617F7074D
:100D300091F70895880FF7CFFA01811101C0FB01E7
:100D40000995089580910B04982F9E7F61F481701E
:100D5000826080930B0480910E04873918F086E935
:100D600080930E0408958831B0F381708661F1CFCD
:100D7000AF92BF92DF92EF92FF920F931F93CF93A8
:100D8000DF93082F162FE901E42FF0E0EE59FD4F15
:100D9000611110C0E4915E2F4E2F4983E8835A837E
:100DA000DF91CF911F910F91FF90EF90DF90BF9057
:100DB000AF900895E62EF12C4491D42EE42FF0E06C
:100DC00026E0829FC00111242FEF30E0B9010E947C
:100DD000AC31802F90E0880F991F55E5569FD001C8
:100DE000579FB00D11248A1B9B0B982F990F890FC9
:100DF0005901AE18BF08AE9ED001AF9EB00DBE9E89
:100E0000B00D11245B2F189F80011124012F112791
:100E10005901A01AB10AAE9E8001AF9E100DBE9E70
:100E2000100D11245901A81AB108AE9CC001AF9C45
:100E3000900DBE9C900D1124892F9927281B390BEA
:100E40002E9FC0012F9F900D3E9F900D1124E92FE2
:100E500062307105A1F050F46115710509F49DCF60
:100E60006130710581F0EB2F512F97CF6430710500
:100E700069F080F06630710509F48FCFF4CFE42F6C
:100E80004B2F592F8ACFE42F412F87CFEB2F542F91
:100E9000492F83CF4B2F5D2DE12F7FCF9091740190
:100EA000882341F09F5F909374011092710110921A
:100EB000700108959150F7CFE9E6F1E0828591E065
:100EC0008927828710861782089580917201811187
:100ED00014C080917401811110C08091730181113F
:100EE0000CC09091CF0296959695969581E02091B1
:100EF0006A01921380E08170089581E0FCCFCF9366
:100F0000DF93E2E8F1E083819481A581B681E90174
:100F100088839983AA83BB831482138216821582E5
:100F2000DF91CF91089580E0089563E070E08CE355
:100F300092E00E94860690913B02891318C0E091CE
:100F40003C02EC30A4F488E0E802F0011124EF5FE9
:100F5000FE4F0680F781E02D309749F02FE532E013
:100F600040913E026FE372E080913D020995089541
:100F7000E6E2F2E0878980933101808D809344011D
:100F80000895F894E82FE295EF70F0E031A1282F52
:100F90002F7081E090E001C0880F2A95EAF7982F22
:100FA0009095932391A392A1892B82A3789408957D
:100FB000811522E5920780F5811530E5930708F049
:100FC000ABC0883E9105A0F4803E910558F4853A67
:100FD000910548F48430910528F48130910511F091
:100FE00090E080E008958D3C9105D0F390650895E0
:100FF000811540E4940708F044C0811550E295073C
:1010000008F0A3C0811561E0960750F320E0392F66
:10101000A901482BCA010895803872E59707A8F402
:10102000803622E5920708F05AC0803432E59307F3
:1010300008F03FC0803242E5940730F18F7190E0B4
:10104000982F8827816F906A0895803C52E5950714
:1010500060F4282F2F71803A924508F456C0822FF1
:1010600090E0982F882790620895803E72E5970758
:1010700008F0B6CF982F882788279F71806F906AD5
:1010800008959F70906A0895282F2695269550E21E
:10109000259F90011124837041E050E0BA0102C005
:1010A000660F771F8A95E2F7CB01822B932B9D6801
:1010B0000895282F26952695277070E2279F900186
:1010C0001124837041E050E0BA0102C0660F771F1F
:1010D0008A95E2F7CB01822B932B9C680895282FE9
:1010E00026952695277070E2279F90011124837022
:1010F00041E050E0BA0102C0660F771F8A95E2F71F
:10110000CB01822B932B9A680895822F90E0982F21
:101110008827846F906A08959C0195E036952795FD
:101120009A95E1F72F7030E0322F2227482F4F7128
:1011300050E084FF05C084E0440F551F8A95E1F715
:10114000C901842B952B906908959F718CCF809550
:101150009091BA0398239093BA03089580910A045A
:101160009091D103981301C008958F5F8770FACFD3
:10117000292F983078F5863068F590E036E0239F87
:10118000800D911D1124682F677023E09695879537
:101190002A95E1F7FC01EE0FFF1FE80FF91FEB5056
:1011A000FE4F50E040E080E0219130E0062E02C08A
:1011B000369527950A94E2F721703327042E01C053
:1011C000220F0A94EAF7822B4F5F5F4F433051059D
:1011D00059F7089580E00895292F983098F58630C2
:1011E00088F590E036E0239F800D911D1124282F73
:1011F000277041E001C0440F2A95EAF723E0969555
:1012000087952A95E1F7FC01EE0FFF1FE80FF91F04
:10121000EB50FE4F30E020E070E05191DF0111977C
:10122000CB01022E02C0969587950A94E2F7817051
:1012300081958527842385278C932F5F3F4F23300B
:10124000310559F70895809318020895982F9295C3
:101250009F7011F0892F94E0282F2695269511F084
:101260009E5F822F869509F09F5F892F0895CF9307
:10127000C82F80918F018C1751F00E947A066093DD
:101280009001709391018093920190939301C09388
:101290008F01CF910895CF93C82F0E94260991E026
:1012A000833009F090E0892F0E943709C0938703AB
:1012B000CF9108959091870321E030E0F90101C0BA
:1012C000EE0F8A95EAF7D90102C0AA0FBB1F6A95F3
:1012D000E2F7EA2B01C0220F4A95EAF7892F8E2305
:1012E000E81305C0292B822F0E944B0908952095F1
:1012F0002923F9CF21E030E001C0220F8A95EAF7D7
:1013000020958091870382230E944B090895909134
:10131000CF02809589238093CF02282F277069F40C
:10132000891759F09091A30292FF07C08695869580
:1013300086950E947A091092CF02089521E030E04C
:1013400001C0220F8A95EAF780918703822B0E94C1
:101350004B090895B0E0A0E0E0EBF9E00C94CA314D
:101360008C01EB01E0919401E11101C0E4E0E15056
:10137000FF0B81E090E06C010E2E02C0CC0CDD1C56
:101380000A94E2F7D801ED90FC90C701B6010E94E3
:1013900011329B01CB010E2E02C0880F991F0A94B7
:1013A000E2F7E81AF90AD8011196FC92EE92129629
:1013B000ED90FC90C701B6010E941132CB0102C032
:1013C000880F991FEA95E2F7E81AF90AF801F38203
:1013D000E2826138FFEF7F07F4F060387105ECF4CA
:1013E0006D8321388FEF3807D4F020383105CCF4E5
:1013F000822F81958C83442319F061956D832C8312
:1014000080919501882379F0813079F0CDB7DEB7EE
:10141000E8E00C94E63161E8E3CF6FE7E1CF21E843
:10142000E7CF2FE7E5CF1D82F1CF1C82EFCFFC0184
:10143000DB012281338191E821388FEF38072CF0CE
:10144000922F203831050CF09FE712969C9312974B
:101450002081318121388FEF3807A4F02038310501
:101460009CF413962C931397442339F0919512967C
:101470009C931297219513962C93118210821382BC
:101480001282089521E8EDCF2FE7EBCF8F708A30DD
:1014900010F4805D0895895A0895382F20E287FF5F
:1014A00002C031952DE24AE0832F642F0E9403325F
:1014B000905D9093ED0181110BC02093EC0120E22F
:1014C0002093EB0120E22093EA018AEE91E0089557
:1014D000642F0E940332905D9093EC01832F64E6A9
:1014E0000E940332882361F3805D8093EB01EBCF90
:1014F0009C01860F971F37FD07C077FD04C097FF3B
:1015000002C08FEF9FE7089577FFFDCF97FDFBCFD8
:1015100080E090E80895E2E7F1E083E0DF011D92CA
:101520008A95E9F7EEE6F1E084E0DF011D928A9505
:10153000E9F7089520916B0130916C012817390764
:1015400031F090936C0180936B010E948B0A089597
:1015500090916901981721F0809369010E948B0A8C
:101560000895CF939091CA028091C302981323C02B
:101570008091CB02882321F09091C40289131BC073
:101580008091CC02882321F09091C502891313C069
:101590008091CE02882321F09091C70289130BC05D
:1015A0009091CD02992329F081E02091C602291360
:1015B00003C080E001C081E0C82FC17080FF0FC070
:1015C000E091B203F091B303309749F082E0809349
:1015D000C9020480F581E02D89EC92E00995909193
:1015E000CA0286E0E9ECF2E0DF01282F1D922A957D
:1015F000E9F79093CA02A2ECB2E001900D928A95AD
:10160000E1F781E0C11103C0911101C080E0817058
:10161000CF9108952FE2280F283078F481E090E0F0
:1016200001C0880F2A95EAF72091CA02662331F09B
:10163000822B8093CA020E94B10A0895809582236A
:10164000F8CFCF93DF93282F81E02A3019F02D3087
:1016500031F480E00E94B50BDF91CF910895809125
:101660001C0690911D0636E0FC01A6E1B6E0019053
:101670000D923A95E1F730EE320F343A08F458C043
:1016800026E0FC0111922A95E9F7C0911C06D09141
:101690001D0646E050E0BE0186E196E00E947132F0
:1016A0009E0126513440892B41F1C90145E09695B0
:1016B00087954A95E1F741E050E0BA0102C0660F14
:1016C000771F8A95E2F7CB0160911404709115049D
:1016D000862B972BB9016B5F7F4FE5E07695679579
:1016E000EA95E1F702C0440F551F6A95E2F7842B93
:1016F000952B90931504809314042A5F3F4F4091DB
:101700001304642F70E0C9010E94AC31481B4630BD
:1017100010F4240F311D211572E0370710F030E06E
:1017200020E02A5E3B4F30931D0620931C0694CF89
:101730002052330B46E0429FB001439F700D1124AD
:101740006F537A4F46E050E00E9468329ECFCF93AD
:10175000DF93EC01FE018491811103C0DF91CF91F1
:1017600008950E94210B2196F5CFCF93382FE09159
:101770001C06F0911D06E651F44020911304622FDF
:1017800070E0CF010E94AC31281B822F332361F01F
:1017900066E00E94F731C82FC15010F4CF91089530
:1017A00080E20E94210BF8CF9F01280F311D2115E7
:1017B000324018F080E0F0E0E0E08E0F9F2F911DA6
:1017C0008A5E9B4F90931D0680931C06E7CF809105
:1017D000BA0390911702892B8093E201909116022F
:1017E000992391F0892B8093E20120E084EE91E02F
:1017F000FC013191CF0131112F5FF1E08A3E9F074B
:10180000B9F721111092160248E050E06EE072E044
:1018100082EE91E00E947132892BA9F088E0E2EE1D
:10182000F1E0AEE0B2E001900D928A95E1F7E0912F
:10183000B203F091B303309731F00280F381E02DD1
:1018400082EE91E009950895E4EEF1E086E0DF0193
:101850001D928A95E9F7109217020E94E70B0895EE
:10186000AAE2B0E0E6E3FCE00C94CF3189EC93E02F
:101870002091F100DC012D93CD01B3E0813D9B0768
:10188000B9F78091CA03833009F472C0B8F481308B
:1018900009F449C0823009F4B5C08091E80083FFA3
:1018A0008DC28091C9039091CA039A3008F086C214
:1018B000E92FF0E0EF51FD4C0C9425328A3009F409
:1018C00090C08B3009F471C0893039F78091C90319
:1018D000813219F78091CD039091CE03009711F0DA
:1018E0000297D9F68091E800877F8093E800809185
:1018F000E80082FF38C09091F3008091F2000297D7
:1019000031F48091F100813011F0863021F4809122
:10191000F1008093BC038091E8008B778093E8000E
:101920000E945B05BACF8091C903813A09F0B5CF17
:101930008091E800877F8093E8008091CD039091AB
:10194000CE03892B61F468E08DEB93E070E00E9498
:1019500007068091E8008B778093E8009ECF60E0D7
:1019600090E080E0F3CF8091C7038111C0CF95CF85
:101970008091C903813A09F090CF8091CD03909175
:10198000CE03892B09F089CF8091E800877F80936F
:10199000E8008091E80080FFFCCF80917C0180937B
:1019A000F1008091E8008E77B9CF8091C903813230
:1019B00009F073CF8091CD039091CE03892B09F06C
:1019C0006CCF8091E800877F8093E8000E945B05E0
:1019D0008091CB0380937C011092BA030E94240C67
:1019E0005CCF8091C903813209F057CF8091E80024
:1019F000877F8093E8000E945B058091CC038093F1
:101A0000BB034BCF8091C903813A09F046CF809147
:101A1000E800877F8093E8008091E80080FFFCCF9A
:101A20008091BB03BCCF803899F0823809F0C6C1E1
:101A30008091CD038F70873008F0C0C18093E9009A
:101A40008091EB0085FB882780F91092E90006C0A1
:101A50008091C5039091C603911182609091E80036
:101A6000977F9093E8008093F1001092F1008091AD
:101A7000E8008E779FC1882309F48DC1823009F078
:101A80009DC18091CB03811190C18091CD038F7056
:101A90002FEF280F263008F091C18093E9002091A4
:101AA000EB0020FF82C1933031F48091EB00806223
:101AB0008093EB007AC19091EB0090619093EB00E2
:101AC00021E030E001C0220F8A95EAF72093EA0076
:101AD0001092EA008091EB008860EACF81116EC11C
:101AE0001091CB031F778091E3008078812B809346
:101AF000E3008091E800877F8093E8000E945B0507
:101B00008091E80080FFFCCF8091E30080688093A3
:101B1000E30082E0111183E08093C7034FC1805836
:101B2000823008F04BC12091CB033091CC032C3D87
:101B3000E3E03E07A1F583E08A838AE289834FB719
:101B4000F894DE01139620E03EE051E2E32FF0E04E
:101B500050935700E49120FF03C0E295EF703F5F80
:101B6000EF708E2F90E0EA30C0F0C7968D939D9372
:101B70002F5F243159F74FBF8091E800877F809312
:101B8000E8006AE270E0CE0101960E9407068091AB
:101B9000E8008B778093E80011C1C096E7CF809171
:101BA000CD039091CE03432F55274330510509F4BF
:101BB0004AC078F54130510509F47AC08BE590E0D0
:101BC000E8E2F5E04230510509F0F8C02091E80064
:101BD000277F2093E8002091CF033091D003821714
:101BE000930708F49C0140E02115310509F065C018
:101BF000411163C08091E80082FDC9CF8091C70385
:101C0000882329F2853019F28091E80083FFF2CF12
:101C1000BECF4132510509F43CC04232510509F0B2
:101C2000CDC08330910508F0C9C0FC01EE0FFF1F45
:101C3000ED52FE4F0190F081E02D80539E4FDC016C
:101C40008C9190E01AC0332721303105D1F0211555
:101C5000310561F02230310509F0B0C0E5E9F5E069
:101C6000E4918E2F90E0E5E9F5E007C0EDEBF5E0BB
:101C7000E4918E2F90E0EDEBF5E0009709F49EC023
:101C8000A5CFEBEAF5E0E4918E2F90E0EBEAF5E0EA
:101C9000F4CF8330910508F091C0880F991FFC01A3
:101CA000E752FE4F0190F081E02D89E090E08ECF69
:101CB00082E190E0E3E8F5E089CF8091C7038823D3
:101CC00009F465CF853009F462CF8091E80083FD87
:101CD0005ECF8091E80082FD8DCF8091E80080FF8B
:101CE00083CF9091F3008091F2002115310519F016
:101CF0008830910550F041E0089709F040E080916C
:101D0000E8008E778093E8006FCF44914093F10014
:101D10003196215031090196E8CF803809F04EC044
:101D20008091E800877F8093E8008091C8038093CA
:101D3000F1009DCE811142C01091CB031230F0F51D
:101D40008091E800877F8093E8001093C8030E9489
:101D50005B05112311F084E005C08091E30087FD4D
:101D6000FACF81E08093C70342E061EC81E00E94FA
:101D70007A0542E261EC84E00E947A0542E261EC7D
:101D800082E00E947A0542E260EC83E00E947A05DC
:101D90008091C70313C08091CB03813079F481E037
:101DA000933009F080E08093C6031092E90080919F
:101DB000E800877F8093E8000E945B058091E8003F
:101DC00083FF0AC08091E800877F8093E8008091BC
:101DD000EB0080628093EB00AA96E3E00C94EB3179
:101DE000882321F00E94A7080E94E70B089588230A
:101DF00039F09091BA03982B9093BA030E94E70BA5
:101E00000895882349F19CEF980F913A80F4E4EE0D
:101E1000F1E02AEE31E09191891303C0DF011197BF
:101E20001C922E173F07B9F70E94E70B089590E226
:101E3000980F983050F4877091E001C0990F8A95FF
:101E4000EAF7892F0E94A708EFCF93E3980F933109
:101E500018F460E00E940A0B08950F931F93CF932C
:101E6000C82F882341F18CEF8C0F813AB0F504EE36
:101E700011E08AEE91E0F8012191C21701F18E176D
:101E80009F07D1F7EFEF80E0D8019D918D01C91731
:101E900081F0EF3F19F4911101C0E82F8F5F863078
:101EA00099F7EF3F31F00E2E000CFF0BEE51FE4F75
:101EB000C2830E94E70BCF911F910F910895E4EE2A
:101EC000F1E02191C21303C0DF0111971C928E171C
:101ED0009F07B9F70E94E70BD5CF80E28C0F8830BF
:101EE00068F4C77021E030E001C0220FCA95EAF71C
:101EF0008091BA03822B8093BA03DBCF83E38C0FEC
:101F00008331C8F661E08C2F0E940A0BD4CF0F9367
:101F10001F93CF93DF93EC01FC0101900020E9F7C0
:101F20008F0101501109C017D10728F0DF91CF911F
:101F30001F910F91089589910E94210BF4CF0F9367
:101F40001F93CF93DF938B01EA019091C7039430E5
:101F500061F58093E9008FEF9091E800815095FD45
:101F600006C095ED9A95F1F700008111F5CF8091AB
:101F7000E80085FF1AC00E942A05811111C08091D6
:101F8000E80085FD06C08091E8008E778093E80028
:101F9000F2CFF80181918F018093F100219779F7B9
:101FA0008091E8008E778093E800DF91CF911F91B8
:101FB0000F91089546E050E0BC0184E00E949F0F1D
:101FC0000895CF93DF93EC0148E050E0BC0181E03D
:101FD0000E949F0F88E0FE01ADEBB3E001900D92EF
:101FE0008A95E1F7DF91CF91089560917E0180910C
:101FF0000B0480FF20C080917D0143E0849FC001DD
:1020000011248D529D4F539A2BB1277F3BB13860DD
:102010005FB7F894FC01649FE00DF11D1124BF012E
:1020200068177907D1F45FBF8FE594E00197F1F766
:1020300000C00000089580917F019091800123E00D
:10204000829FF0011124ED52FD4F8917A0F61182F5
:10205000108212828F5F3396F8CFFC014191CF013D
:10206000E8E03BB9000000C047FF2BB9440F000077
:1020700000C000C000C02BB900C0EA9591F7D0CFD6
:10208000EBE0F4E080818E7F8083E0EDF2E08281FE
:10209000816082830E94F50F0895B0E0A0E0E3E53F
:1020A000F0E10C94C8317C015B016A0180919302DC
:1020B00001E010E08A3010F40AE010E0C1E0D0E066
:1020C000B501C701F6010995811104C021960C17CD
:1020D0001D072CF4CDB7DEB7EAE00C94E431CC9FB9
:1020E0009001CD9F300D300D112490E080E045E34C
:1020F0004A95F1F70000019682179307C1F7E0CFE8
:1021000080912502811119C088EC90E02091E300B4
:1021100027FD10C0EFE3FCE93197F1F700C00000A4
:102120000197A1F782E0809325020E940B0510928F
:10213000C70303C081E08093250281E090912502CE
:10214000913011F080E0089508950E948010882356
:1021500059F0E091B203F091B303309729F0019068
:10216000F081E02D0995089580E008950F931F9365
:102170000E948010882329F00E947A061F910F91F7
:1021800008950E947A060091940210919502209180
:10219000960230919702600F711F821F931FEECF3E
:1021A00054985C9A879A8F9885E08A95F1F7000099
:1021B00089B187988F9A90EA9A95F1F790E024E098
:1021C000959587952A95E1F780959095817008956A
:1021D000CF93DF9380918201CEE18111CDE1809197
:1021E0008301D0E0882329F080918401DEE1811110
:1021F000DDE10E94D01081110FC08D2F80937D01F1
:10220000C0937E01CD0F10927F01C0938001C093D7
:102210008101DF91CF91089580E0F0CF809182011C
:10222000F90180830E94E81008951F93CF93DF93F4
:10223000182FEB010E942D0F8FE99FE00197F1F716
:1022400000C000002197C1F7812F0E94010FDF918C
:10225000CF911F9108951092BA030E94240C2FEF82
:1022600084E39CE0215080409040E1F700C00000F2
:1022700088E19AE00FB6F894A895809360000FBEAD
:1022800090936000FFCFCF93DF93C9ECD2E060E082
:10229000CE010E94AB322196C11584E0D807B9F770
:1022A000DF91CF9108951F93CF93DF93122F873043
:1022B000E0F46830D0F44630C0F4C42FD0E0CC0F46
:1022C000DD1F9CE0699FC00DD11D112490E6899F00
:1022D000C00DD11D1124632FCE0189960E94AB320F
:1022E000612FCE018A960E94AB32DF91CF911F9170
:1022F0000895B0E0A0E0EFE7F1E10C94CA3198EA6C
:10230000E92E93E0F92ED12C8701C12C1CC04C2F53
:1023100083E021E030E08D1540F0FE01EE0FFF1F5D
:10232000E00FF11F859194919C016C2D8D2D0E94E1
:1023300053112196C630D10551F7C394045F1F4F46
:1023400088E0C81619F0D0E0C0E0E1CFD39480E671
:10235000E80EF11C87E0D812D7CFCDB7DEB7E8E0A2
:102360000C94E63188E290E00E94AB320895CF935E
:10237000C82F6FEF811164E285E290E00E94AB32DA
:102380006FEFC11162E186E290E00E94AB326FEF25
:10239000C11164E187E290E00E94AB32CF910895D1
:1023A00080E00E94B71160E070E0CB010E94B211A2
:1023B0000E9479110E94431181E00E94B711089593
:1023C0000F931F93CF93DF93873030F5683020F55C
:1023D000463010F5C42FD0E0CC0FDD1F2CE0629FFB
:1023E000C00DD11D112430E6839FC00DD11D1124D5
:1023F000CE0189960E948732082F10E0102F002707
:10240000CE018A960E9487329801282BC901DF915C
:10241000CF911F910F91089590E080E0F8CF462F63
:10242000783040F4663030F4873020F4672F0E9413
:10243000E011089590E080E00895CF92DF92FF923E
:102440000F931F93CF93DF936C01009187038091CB
:102450001802082BC6E0D0E010E0FC2EC8010C2EBC
:1024600002C0959587950A94E2F780FD0CC02197EC
:10247000A0F7F12C8F2DDF91CF911F910F91FF903D
:10248000DF90CF900895B6018C2F0E940F120E940A
:10249000D807019761F3EECFCF93DF93EC010E9451
:1024A0001D12BE010E940F120E94D807DF91CF912A
:1024B0000895FC0124812223C1F0808191810E9432
:1024C0004C1292959F70963091F058F4925F9F70E5
:1024D000923058F4803F19F030F4883E30F481E0B7
:1024E00008959A5FF4CF843FD1F380E00895883E49
:1024F000B0F3813FD1F7F3CFA6E0B0E0E2E8F2E13C
:102500000C94CF3149835A8349815A819923A1F090
:10251000222391F0CA010E941D12182F682F898171
:102520009A810E94EC0869817A81812F0E940F12A2
:102530002696E3E00C94EB31CA010E94B808182FEC
:10254000F2CF88E290E00E948732682F70E090E03E
:1025500080E0089585E290E00E948732843289F419
:1025600086E290E00E948732823159F487E290E05F
:102570000E94873291E0843109F090E0892F8170C8
:10258000089580E0FCCFB0E0A0E0E9ECF2E10C942B
:10259000CA316C017B0164E670E088E70E940A2F73
:1025A0008C01E601EC0CFD1C17FD0BC0FE018491B3
:1025B00064E670E00E94762F8C012196CE15DF052F
:1025C00099F70E94EC2F81E00115110509F080E0D8
:1025D000CDB7DEB7E8E00C94E6318091AE03909180
:1025E000B103911103C091E089270895882369F010
:1025F00062E070E089E693E00E94C312811103C09B
:102600008091AE0308951092AE038091AE03EBCF9C
:10261000CF93C091AE038091B1038823D1F00E9483
:102620007A06605A75418F4F9F4F6093AA0370934B
:10263000AB038093AC039093AD03C11108C062E07B
:1026400070E087E693E00E94C312811105C0C0913B
:10265000AE038C2FCF91089581E08093AE03F7CF26
:10266000B0E0A0E0E6E3F3E10C94C63149015A0181
:102670006B017C010E94A2068401A4016A2D7B2DBE
:1026800088E090E00E94BD3294014A2D5B2DB60196
:10269000C70100E20E944D32622F84E290E00E9466
:1026A000AB32CDB7DEB7ECE00C94E231A3E0B0E0A2
:1026B000ECE5F3E10C94C931F82EE62E042FD22E6E
:1026C00080910B0480FF55C090910C049F1108C0AD
:1026D00090910D04961304C090910E04941729F064
:1026E0009091D20292609093D202E82FE695AE2F9D
:1026F000B0E0A454BE4F9C919093D0028E7F823064
:1027000009F041C0402F073908F046E99E012F5FCC
:102710003F4F6E2D8F2D0E94B80680910B0480FFD5
:1027200011C02B8139814A8180917F019091800174
:1027300053E0859FF0011124ED52FD4F8917E8F019
:102740000E94F50FF0920C04E0920D0400930E0429
:10275000DD2079F020910B0460910F04709110043A
:102760003F2D4E2D502F80911104909112040E9404
:1027700030132396E9E00C94E531418330832283C2
:102780008F5F3396DBCF9230E9F6E2506E2F6170A7
:10279000B62EE695F0E0EE59FC4F1491C12C6091F5
:1027A0008101C61668F6C19EC001112470E00E9426
:1027B000AC318F2DB11017C0860F20917F01622F91
:1027C0006C0D7727771F9B01220F331F260F371FB2
:1027D0002D523D4F402F073908F046E96E2D0E94DB
:1027E000B806C394DCCF861BE8CFEBE0F4E043816E
:1027F0002FE0421B08F440E021E0628181810E94C9
:1028000056130895EBE0F4E043812FE0420F08F403
:102810004FEF21E0628181810E9456130895EBE021
:10282000F4E0628121E1621B08F460E021E0438171
:1028300081810E9456130895EBE0F4E0628121E16A
:10284000620F08F46FEF21E0438181810E945613EB
:102850000895EBE0F4E0818121E0438162818151C0
:102860000E9456130895EBE0F4E0818121E043815A
:1028700062818F5E0E945613089580910F04882311
:1028800019F0815080930F0420910B0430910C04B7
:1028900040910D0450910E0460910F04709110044A
:1028A00080911104909112040E9430130895809138
:1028B0000F04833018F48F5F80930F0420910B0472
:1028C00030910C0440910D0450910E0460910F045E
:1028D0007091100480911104909112040E943013A1
:1028E000089590910B0490FF28C09170811126C02B
:1028F000926090930B048091D20281608093D20207
:10290000662391F020910B0430910C0440910D044A
:1029100050910E0460910F04709110048091110485
:10292000909112040E94301320E040910E046091B7
:102930000D0480910C040E94561308958C3010F001
:102940009661D7CF880F982BD4CF80910B048695B2
:10295000815009F48BE061E00E9471140895809128
:102960000B0486958F5F8C3008F081E061E00E9457
:102970007114089580910B0480FF08C086958258D9
:102980008F77893018F40E94AF14089561E082E0D7
:102990000E9471140895EBE0F4E083E080831182DB
:1029A0008FEF828386E983831482A0EDB2E01296D2
:1029B0008C911297836012968C93758123E030E09E
:1029C0004FEF56E960E0868197810E9430130895A9
:1029D0009091A30292FB222720F9281779F080FB1F
:1029E00092F99093A3026091A2027091A30284E0F5
:1029F00090E00E94C93282E00E948709089590E029
:102A000080E00E949532863E9E4F19F40E94AA12E1
:102A1000089580E00895B0E0A0E0E1E1F5E10C94D4
:102A2000CB317901C82F880FDD0B41155105A9F075
:102A3000FE0193E0EE0FFF1F9A95E1F7EF5FFE4F67
:102A4000818192818A5D9D4F208130E0421753073A
:102A500008F49A01A9010E947E32CE010E9436310B
:102A6000D82E8823D1F001151105B9F083E0CC0FE1
:102A7000DD1F8A95E1F7FE01EF5FFE4F438150E0D5
:102A80000417150708F4A801CF5FDE4F6C817D8124
:102A90006A5D7D4FC7010E947E328D2DCDB7DEB7B6
:102AA000E7E00C94E731A5E0B0E0E9E5F5E10C944E
:102AB000C8318D83E62E5A01F22E6801809193026F
:102AC0008A3028F080E02596EAE00C94E4318D818C
:102AD0008930C4F31A8219828A836B832C8363E062
:102AE00070E0CE0102960E9486068983E092310151
:102AF000F092440110E000E030E020E044E050E0DB
:102B0000BE016F5F7F4F85E00E940B158823D1F2D5
:102B10004E2D50E030E020E0B50186E00E940B151C
:102B2000882381F230E020E041E050E0BE016B5F9D
:102B30007F4F87E00E940B15882321F20F2D10E0B4
:102B4000960150E040E070E060E088E00E940B15E4
:102B5000BACFA4E0B0E0EFEAF5E10C94CE314091B9
:102B60008702509188026091890270918A022FB782
:102B7000F8948091B5039091B603A091B703B091FA
:102B8000B8032FBF841B950BA60BB70B11E084363F
:102B90009105A105B10518F10E94B6106E5F7F4F37
:102BA0008F4F9F4F69837A838B839C8310E000E073
:102BB00030E020E044E050E0BE016F5F7F4F82E0F4
:102BC0000E940B15182F882351F00E947A066093FB
:102BD0008702709388028093890290938A02812FE2
:102BE0002496E4E00C94EA31A5E0B0E0EAEFF5E1E8
:102BF0000C94CC317B0101E010E09E012B5F3F4F34
:102C000050E040E070E060E080E00E940B15182F7B
:102C1000882309F456C04091830250918402609148
:102C20008502709186022FB7F8948091B503909138
:102C3000B603A091B703B091B8032FBF841B950BC7
:102C4000A60BB70B84369105A105B10548F464E0E5
:102C500070E087E292E00E9486069D81891789F1E3
:102C600004E010E09E012F5F3F4F50E040E070E035
:102C700060E081E00E940B15082F64E070E087E2BD
:102C800092E00E94860611E09D81981310E01023C7
:102C900031F10E947A0660938302709384028093DC
:102CA00085029093860289819A81AB81BC81809351
:102CB0007F0290938002A0938102B093820211E080
:102CC0000EC08091270290912802A0912902B09114
:102CD0002A0289839A83AB83BC831111E4CF80914C
:102CE0007F0290918002A0918102B0918202F7014F
:102CF00080839183A283B383812F2596E6E00C9491
:102D0000E8318F929F92AF92BF92EF92FF920F9312
:102D10001F93CF937B01942FB901A801F701808005
:102D20009180A280B380EFB7F8940091B503109121
:102D3000B6032091B7033091B803EFBF0819190902
:102D40002A093B09043611052105310518F4C1E0B3
:102D5000992381F010E000E030E020E00E940B15A4
:102D6000C82F882339F00E947A06F70160837183A7
:102D7000828393838C2FCF911F910F91FF90EF90BF
:102D8000BF90AF909F908F900895A1E0B0E0EBECE2
:102D9000F6E10C94CE318091AE03898320913A0202
:102DA00090E041E02817190609F440E001E010E046
:102DB0009E012F5F3F4F6FE872E084E00E94811612
:102DC0002196E4E00C94EA31ABE0B0E0EAEEF6E103
:102DD0000C94CE3188E0EBE0F4E0DE011196019036
:102DE0000D928A95E1F78091D0029091D102A09145
:102DF000D20289879A87AB8741E08B85811101C018
:102E000040E00BE010E09E012F5F3F4F6BE872E067
:102E100083E00E94811681111092D2022B96E4E089
:102E20000C94EA31A8E0B0E0E8E1F7E10C94D0318D
:102E300066EE7EEF90E080E00E94C93260E082E0C2
:102E400090E00E94AB3260E083E090E00E94AB3201
:102E50001092180260E074E184E090E00E94C932B0
:102E600060E086E090E00E94AB326FEF87E090E098
:102E70000E94AB3240E050E0BA0188E090E00E944E
:102E8000BD3260E084E290E00E94AB3260E087E116
:102E900090E00E94AB3260E08CE090E00E94AB32A8
:102EA00060E08DE090E00E94AB3219821A821B82B2
:102EB0001C821D821E821F82188648E050E068E155
:102EC00070E0CE0101960E949B3240E050E0BA01D2
:102ED00080E290E00E94BD3280E00E94B7110E9423
:102EE000D01140E050E0BA018FE090E00E94BD3286
:102EF00040E050E0BA0183E190E00E94BD322896A4
:102F0000E2E00C94EC3128E030E043E060E086E35E
:102F10000E94322E0895CF93DF93D82FC62F0E94A0
:102F200083178D2F80680E94AA2E8C2F0E94AA2EB4
:102F30008AEB8A95F1F700C00E94DA2E83E492E0D2
:102F40000197F1F700C00000DF91CF910895682F3D
:102F5000893708F068E760938D0191E090938E01C6
:102F600090918201992339F06150811101C064E090
:102F70008FE00E948B170895FB0180810E94A717A4
:102F8000089590918D01911101C095E0282F880F2F
:102F9000330BA901490F511DCA011816190614F067
:102FA00081E090E00E94A7170895ACE0B0E0EBED5F
:102FB000F7E10C94CA314F83588769877A878B87EA
:102FC0009C8780918201882309F446C08091EF019B
:102FD000811107C060E080E50E948B1781E080933B
:102FE000EF010E94831780E50E94AA2E8AEB8A9542
:102FF000F1F700C00E94C22E0E94C22E0E94C22E73
:103000007C010E94C22E20E0E22AF82A0E94C22EF1
:103010008C010E94C22E20E0022B182B0E94DA2E77
:1030200085E08A95F1F70000F894B7018091850159
:10303000909186010E94780A909386018093850181
:10304000B80180918701909188010E94780A90933D
:1030500088018093870178940E948010882309F466
:1030600069C00E947A060091F0011091F10120914F
:10307000F2013091F3016B017C01C01AD10AE20A1E
:10308000F30A97018601083011052105310508F47E
:1030900051C06093F0017093F1018093F20190931D
:1030A000F3010091900110919101209192013091D2
:1030B0009301601B710B820B930B623371058105C9
:1030C000910580F41092860110928501109288017A
:1030D0001092870110928A011092890110928C013E
:1030E00010928B0110918F010E94D010482FBE01C9
:1030F000695F7F4F85E891E0112389F10E94AA0959
:1031000000918F01109182010E94D01041E0482768
:10311000BE01695F7F4F89E891E0011719F10E94B4
:10312000AA0986E0FE013796AAE9B1E001900D9266
:103130008A95E1F786E0FE013796DE01119601904F
:103140000D928A95E1F729813A814B815C816D81ED
:103150007E8180E090E02C96E8E00C94E6310E94BD
:10316000170ACECF0E94170ADCCFCF93C82F0E9438
:1031700083178C2F0E94AA2E8FE792E00197F1F718
:1031800000C000000E94C22EC82F95E09A95F1F76A
:1031900000000E94DA2E85E68A95F1F70000109271
:1031A000EF018C2FCF910895CF93DF930E942A2EA9
:1031B000269A0E9483176AE58AE30E948B172FEFF5
:1031C00080E792E0215080409040E1F700C000008D
:1031D00082E00E94B51883E00E94B51884E00E9446
:1031E000B51885E00E94B51886E00E94B51860E029
:1031F00080E10E948B1780E00E94B518D82F81E0F3
:103200000E94B518C82F0E94DA2ED23419F481E03A
:10321000C13009F080E0817080938201882321F021
:1032200064E08FE00E948B17DF91CF9108951F9289
:103230000F920FB60F9211242F933F934F935F93EA
:103240006F937F938F939F93AF93BF93CF93DF93AE
:10325000EF93FF93D091E900DF708091EC00C82FCD
:10326000C17080FDC0E81092E9008091F000877F76
:103270008093F00078940E94300C1092E9008091C5
:10328000F00088608093F000CD2BCF70C093E900F0
:10329000FF91EF91DF91CF91BF91AF919F918F916E
:1032A0007F916F915F914F913F912F910F900FBE42
:1032B0000F901F9018951F920F920FB60F92112426
:1032C0002F933F934F935F936F937F938F939F932E
:1032D000AF93BF93EF93FF938091E10082FF09C00A
:1032E0008091E20082FF05C08091E1008B7F809396
:1032F000E1008091DA0080FF24C08091D80080FF37
:1033000020C08091DA008E7F8093DA008091D9000E
:1033100080FF9DC080E189BD82E189BD09B400FEC6
:10332000FDCF81E08093C7038091B903811109C06B
:103330000E940B050E94AC058091E200846080939E
:10334000E2008091E10080FF17C08091E20080FFE1
:1033500013C08091E2008E7F8093E2008091E200B2
:1033600080618093E2008091D80080628093D800D1
:1033700019BC85E08093C7038091E10084FF2BC0D6
:103380008091E20084FF27C080E189BD82E189BD90
:1033900089B5982F917080FFFBCF8091D8008F7DE9
:1033A0008093D8008091E1008F7E8093E10080912E
:1033B000E2008F7E8093E2008091E2008160809342
:1033C000E2008091C803882309F447C084E0809319
:1033D000C7038091C7038091E10083FF27C08091DC
:1033E000E20083FF23C08091E100877F8093E100AA
:1033F00082E08093C7031092C8038091E1008E7F22
:103400008093E1008091E2008E7F8093E2008091C2
:10341000E20080618093E20042E060E080E00E9490
:103420007A058091F00088608093F000FF91EF9121
:10343000BF91AF919F918F917F916F915F914F91CC
:103440003F912F910F900FBE0F901F90189519BCB0
:103450001092C7031092B90374CF8091E30087FDE7
:1034600093E09093C703B5CF78941F921FB61F9235
:1034700011248F939F93AF93BF938091B503909145
:10348000B603A091B703B091B8030196A11DB11D79
:103490008093B5039093B603A093B703B093B8039A
:1034A000BF91AF919F918F911F901FBE1F90189554
:1034B0009C014FB7F8948091B5039091B603A09109
:1034C000B703B091B8034FBF821B930B08952FB77A
:1034D000F8948091B5039091B603A091B703B09191
:1034E000B8032FBF08952F923F925F926F927F9201
:1034F0008F929F92AF92BF92CF92DF92EF92FF9204
:103500000F931F93CF93DF938091B103882309F426
:10351000FEC08091AF039091B0030E94581AC297E9
:1035200008F4D5C00E94671A9093B0038093AF034C
:1035300086E194E090931D0680931C060E94801003
:10354000882309F401C181E793E00E94A70B88EB6F
:103550000E94210B809199010E94460A0E94210B32
:1035600089EB0E94210B809198010E94460A0E94DB
:10357000210B8EE693E00E94A70B8091960190911B
:10358000970154E0969587955A95E1F70E94460A6F
:103590000E94210B809196010E94460A0E94210BF5
:1035A0008BE693E00E94A70B80EA91E00E94870FD0
:1035B00080E993E00E94A70B80919C010E944D0A34
:1035C0000E94870F80919D010E944D0A0E94870FE3
:1035D00080919F010E944D0A0E94870F80919E0159
:1035E0000E944D0A0E94870F88E893E00E94A70B73
:1035F00080918D01811101C085E00E944D0A0196E4
:103600000E94870F84E893E00E94A70B80919501A8
:10361000882331F0813009F48CC08BE793E002C03D
:1036200081E893E00E94A70B80918F01882309F421
:1036300083C089E993E00E94A70B87E793E00E948B
:10364000A70B80919401811101C084E0805D0E94EC
:10365000210B8FE993E00E94A70BC1E0D0E080919D
:103660008703882309F46BC090E00C2E02C0959567
:1036700087950A94E2F780FF62C08C2F0E94460A69
:103680000E94210B2196C830D10549F780E20E94A3
:10369000210B8CE993E00E94A70B8091690188239C
:1036A00009F44FC089E993E00E94A70B80916B0158
:1036B00090916C016AE070E00E94AC31862F0E940C
:1036C0004D0A01960E94870F80E30E94210B809192
:1036D000140490911504892B09F04CC08091AE031D
:1036E0008823A9F00E947A060091AA031091AB03E7
:1036F0002091AC033091AD03601B710B820B930BD7
:103700006F3F7F4F8F4F9F4710F40E94ED12DF9164
:10371000CF911F910F91FF90EF90DF90CF90BF90CE
:10372000AF909F908F907F906F905F903F902F9081
:1037300008958EE793E076CF86E993E07CCF80EB27
:103740009FCF86E993E0B0CFC0E9D0EFDC0F85EAE8
:1037500093E00E94A70B11E01D0F8D2F0E94210BFB
:10376000D12F1C13F8CF80E00E94B50BC05FC03C86
:1037700061F7ADCF8091B103882309F4AFCF809179
:10378000A9038111ABCF0E9408132091140430913A
:1037900015042115310509F4A1CF80E041E050E086
:1037A000082F10E01A01082E02C0220C331C0A94C4
:1037B000E2F7B10162237323672B11F48F5FF0CF1F
:1037C0009091A80390FF95C0880F880F880F809371
:1037D000770110927A01895F8093780183E080936A
:1037E0007B0124E630E047E050E065E771E088E7E0
:1037F0000E94A42F892B09F071CFA80125E0440F66
:10380000551F2A95E1F78091A80380FF84C0E8E85E
:10381000F3E080E2DF011D928A95E9F7ACECB1E0BC
:1038200008EC11E080EDC82E81E0D82E97E0592EEB
:10383000772473948D91E80129918E01240F352FFF
:10384000311D2A5E3B4FE82FF0E0E857FC4F90E037
:1038500080E0652C681A872C082E01C0880C0A9419
:10386000EAF77901A12CE701B9907E01B820662D15
:103870006A196770962E062E000C770BDB2D01C09F
:10388000DD0F9A94EAF77195619571096770772752
:1038900001C0B6946A95EAF7BD2A6081962E9B28EE
:1038A0009082A39468E0A612DECF0196319688300C
:1038B000910579F6CA16DB0609F0BCCF04E610E0E4
:1038C00020E230E048E853E060E488E70E94C52F3A
:1038D000892B09F003CFE101C095D09580911404A4
:1038E00090911504C823D923D0931504C0931404D0
:1038F000F5CE8295880F8076809377019801369572
:1039000027953695279520937A01815E80937801DB
:1039100020937B0166CF4A5E5B4F04E610E020E215
:1039200030E0D2CFAEE1B0E0E8E9FCE10C94CF3179
:103930004091C9025091CA026091CB027091CC02B1
:103940008091CD029091CE020E94D5172093C9029A
:103950003093CA024093CB025093CC026093CD02C5
:103960007093CE0286E0E9ECF2E0DE01179601905A
:103970000D928A95E1F786E0FE013796DE011D96ED
:1039800001900D928A95E1F786E0FE013D96DE01F9
:10399000119601900D928A95E1F786E0FE0131962D
:1039A000A9ECB2E001900D928A95E1F786E0E9EC8E
:1039B000F2E0DE01599601900D928A95E1F786E0DA
:1039C000FE017996DE01179601900D928A95E1F736
:1039D00086E0FE013796DE01119601900D928A95E0
:1039E000E1F786E0FE013196DE01539601900D92DB
:1039F0008A95E1F786E0FE017396DE011796019045
:103A00000D928A95E1F786E0FE013796A9ECB2E0C7
:103A100001900D928A95E1F786E0E9ECF2E0DE0193
:103A2000179601900D928A95E1F78091690188239C
:103A300009F445C080916E0190916F010E94581A5F
:103A400020916D0128171906D0F580917001909191
:103A500071010E94581A893C910588F189859A85DF
:103A6000892B9B85892B9C85892B9885892B91E0B7
:103A700009F490E0909372010E946507109187030A
:103A8000882351F10E94671A90936F0180936E0111
:103A9000109271011092700180916A01111105C09C
:103AA000882369F00E949E090AC0212F30E0082E69
:103AB00002C0359527950A94E2F720FFF3CF0E94C4
:103AC000B10A81112FC08091C8021092C802817082
:103AD0006E96E3E00C94EB3180916A01111118C0ED
:103AE0008111EDCF80916E0190916F010E94581A63
:103AF00020916B0130916C012817390700F78091F4
:103B00006A010E947A0910926F0110926E01D7CF5C
:103B1000212F30E002C0359527958A95E2F720FFE6
:103B2000CECFE0CF81E090E0D0CFA3E1B0E0EBE9F1
:103B3000FDE10C94C5318E01045F1F4F88E0D80170
:103B40001D928A95E9F78AEAC82E81E0D82EF12CD9
:103B5000E12CAA24A394B12C24EB822E21E0922EF6
:103B6000F60181916F018F3F09F442C0F894E82F6C
:103B7000E295EF70F0E021A18F70A50102C0440F23
:103B8000551F8A95E2F7CA01922F982B91A392A113
:103B90008095892382A3789400C0EEEAF1E0712C2D
:103BA00031E021912F3F09F46BC0A22FA295AF7095
:103BB000B0E090968C9190E02F7002C0959587951B
:103BC0002A95E2F780FD5CC0832F782A330F8E168A
:103BD0009F0639F7F601319780818F3F11F00E94DF
:103BE000C10750EA5A95F1F7F801EE0DFF1D7082FA
:103BF0008FEFE81AF80AA4E0EA16F10409F0B0CF52
:103C000048E050E0B80188E992E00E9471320097E4
:103C100041F028E0F801A8E9B2E001900D922A9560
:103C2000E1F70091A102892B69F181E080931D02E7
:103C30000E94671A90931C0280931B0280911B02C2
:103C400090911C020E94581A059700F110E001554E
:103C50001D4F44E050E068E972E0C8010E947132F3
:103C6000B12C892B51F084E0E8E9F2E0D801019011
:103C70000D928A95E1F7BB24B39410921D0207C000
:103C800080E0A3CF80911D028111D8CFB12C0E947A
:103C90008010A82EE091A102882309F489C019821E
:103CA0001A821B821C820E2F10E001551D4F80913D
:103CB00093028A3008F046C044EF55E1BE016F5FC1
:103CC0007F4FC8010E944D10882309F460C049EA63
:103CD00055E1BE016F5F7F4FC8010E944D108823E0
:103CE00009F455C044EE56E1BE016F5F7F4FC80135
:103CF0000E944D10882309F44AC045EC56E1BE01EC
:103D00006F5F7F4FC8010E944D10882309F43FC0A8
:103D1000109293028091A00290E044E050E0BE0136
:103D20006F5F7F4F81559D4F0E94713221E020933C
:103D30002402892BF1F4A12C8A2D8B296396EDE0C6
:103D40000C94E13180911E0290911F020E94581A3A
:103D5000843F914008F0B0CF80912402882359F32A
:103D600084E0FE013196DF011D928A95E9F71092F9
:103D70002402E091A002F0E0E155FD4F89819A8193
:103D8000AB81BC8180839183A283B383D5CF8091A3
:103D900093028F3F31F08F5F809393028A3008F453
:103DA000B9CF0E94671A90931F0280931E02D4CF4E
:103DB000F0E0E155FD4F84E0A7E2B2E001900D9202
:103DC0008A95E1F764E070E087E292E00E9486065F
:103DD00080932602C0902B02D0902C02E0902D02FE
:103DE000F0902E028091200290912102A091220257
:103DF000B0912302C816D906EA06FB06D1F0C0929C
:103E00002002D0922102E0922202F09223020E942C
:103E1000801081110EC00E947A06C61AD70AE80ADD
:103E2000F90AC0929402D0929502E0929602F09222
:103E300097028BE0EFE2F2E0DE01119601900D9225
:103E40008A95E1F79981892F86950A81FB80EC801C
:103E50001B85109239021123A1F010FF0AC090FFB8
:103E600017C090910B04916090930B0460E00E9446
:103E7000711411FF06C020E04E2D6F2D802F0E947F
:103E8000561380913A02882331F00E94081354CFD0
:103E90000E944010EECF0E94ED124ECFA8E0B0E09D
:103EA000E4E5FFE10C94C2318C01DC0114968C91A5
:103EB0001497882309F4BDC021E04C9111965C91C0
:103EC000119712966C91129713967C9113971596F1
:103ED0009C910E947C127C01F801D580DD2009F4C0
:103EE00069C197578038910508F064C1FFE0FE155D
:103EF00008F48FC08FEF93E00E948732811189C050
:103F0000E9ECAE2EE2E0BE2EE1104DC0FE0133968C
:103F100086E0DF011D928A95E9F77AE0472E750168
:103F2000BFEFEB1AFB0AC5010E94873289831A8210
:103F3000882309F46EC0813009F07FC06501E2E09A
:103F4000CE0ED11CC7010E9487328A83882309F4D0
:103F500060C09FEF980F9330A0F5F3E0AF0EB11C57
:103F6000C6010E9487328B83882309F452C01C82C9
:103F7000DE0111967D01F7012081222381F221309B
:103F800009F0BAC091818281913009F058C0F2E005
:103F9000EF0EF11C65E070E0893311F460E570E02C
:103FA0000E94151153C0A11424E0B20691F1C5017D
:103FB0000E948732811101C0EA943FEFA31AB30A2D
:103FC000A3CF56018430A1F662E0E62EF12C560113
:103FD0002FEFA21AB20AC6010E948732E1E0F0E098
:103FE000EC0FFD1FEE0DFF1D8083882391F08C37B1
:103FF00041F4E2E0F0E0EC0FFD1FEE0DFF1D10823A
:10400000B7CF3FEFE31AF30A650187E0E816F10442
:10401000F1F68091CF02877061F0D80115968C91EE
:10402000882339F08091A30282FF03C082E00E94BE
:1040300087092896E0E10C94DE31570199CF923040
:1040400039F522E0E20EF11C0E942D0FFFEFEF1A6E
:10405000FF0A8FE99FE00197F1F700C00000AFE988
:10406000BFE01197F1F700C00000EFE9FFE03197E2
:10407000F1F700C000008FE99FE00197F1F700C061
:104080000000AFE9BFE01197F1F700C0000073CF67
:10409000933031F432E0E30EF11C0E94010FD6CFD1
:1040A000943021F08FEFE81AF80AD0CF92E0E90EB1
:1040B000F11C30E020E0B7016F5F7F4FD701119610
:1040C0004C918053990B8A30910558F02150310959
:1040D00008F4BCCFEFE9FFE03197F1F700C0000032
:1040E000F5CF429EF001439EF00D11249C012E0F4E
:1040F0003F1F842F7B01DFCFE22FF0E0E557FE4F1B
:104100005490822F86958695869590E0FC01E5581F
:10411000FE4F64902770712C022E02C07594679434
:104120000A94E2F731E063227724FC01E559FE4F5F
:104130008490912C022E02C0959487940A94E2F701
:10414000A1E08A229924FC01E55AFE4FC490D12CAB
:1041500002C0D594C7942A95E2F7B1E0CB22DD24C2
:104160006114710419F081EE0E942D0F81149104E5
:1041700019F086EE0E942D0FE9E365E070E05E1213
:1041800002C060E570E0852D0E9415118114910434
:1041900019F086EE0E94010F6114710419F081EE8E
:1041A0000E94010FC114D10409F450CF65E070E002
:1041B0008CE2F6CE80916901882309F46FC0B0E2E9
:1041C000EB16B2E5FB0608F052C0E114E2E5FE068C
:1041D00008F0B7C0E114F0E4FF06E0F5E11420E2D6
:1041E000F20608F0DAC030EEE316F10450F088EE83
:1041F000E816F10408F44DC0E11491E0F90608F066
:1042000048C0F8018481882309F443C0F7E0EF1621
:10421000FEE7FF0609F4ACC0C7018D5C9109439726
:1042200008F4A6C00E946507811133C0DD2059F053
:1042300080916A01209187032111B6C0882309F477
:10424000BCC00E948B0A0E94671A909371018093F0
:1042500070011FC0E114A0E5FA0608F08DC0F80156
:104260008681807F09F099C08F2D99278BC0B0E897
:10427000EB16B2E5FB0608F03BC0E0E6EE16E2E521
:10428000FE0608F05EC0F0E4EF16F2E5FF0608F463
:1042900066C08091740187FD10927401F0929701BD
:1042A000E0929601D8018D919C911197909399017C
:1042B00080939801F7013497E533F10508F086C043
:1042C000E55FFD4FE49115968C9120EB811102C0C2
:1042D0002E2FE0EBA0EAB1E090E080E03D913213B8
:1042E0006FC08E579E4FDC015E96EC93F70175C050
:1042F00020ECE21622E5F20660F230EEE31632E53B
:10430000F30608F07ECF20916A01C7018F719927CB
:104310002817190609F0BDCF8D2D0E944E07D80130
:1043200016968C911697807F803509F0B2CF15963E
:104330008C91882361F18091740181508093740184
:10434000A8CF20916A01C7018F71992728171906F4
:1043500009F09FCFD1109DCF0E945C079ACF20918A
:104360006A01C7018F7199272817190609F091CFA3
:104370008D2D0E944E078DCFC70155E096958795EC
:104380005A95E1F78F70992720916A01EDCF0E942D
:104390005C07809174018F5FD1CFD80116968C9104
:1043A000807F09F476CF2DCF30E0082E02C03595FE
:1043B00027950A94E2F720FF44CF0E947A0941CF63
:1043C00001968630910509F089CF90CFC7019A9563
:1043D000F70181159F4108F4FF27D80115968C91AC
:1043E000E13DF10538F0E93DF10570F0E730BEE759
:1043F000FB0709F1882361F0FE57E031F10540F435
:10440000E551FD4C0C942532682F8E2F0E940A0B2B
:10441000D80115968C9181119AC38091BA0382724A
:10442000F701E052F847E531F10508F0E9C0E55041
:10443000FD4C0C9425320E943709EACF80E00E949F
:10444000A7171092940180E00E94A80A8AE892E0DF
:104450000E949A0ADECD40918D012091940120FBAB
:1044600047F9269523708091690180FB22F980919C
:104470006B0190916C0162E370E00E94AC315FEFE0
:10448000560F550F550F550F522B609195016370C4
:1044900070E08FE090E00E94BD32BBCD81E00E94D1
:1044A000C117B7CD8FEFFBCF8AE0F9CF86EFF7CFFB
:1044B00090918F0181E089270E943709AACD8091D0
:1044C0009401811101C084E08F5F18160CF081E027
:1044D000883008F087E0809394019BCD809194010F
:1044E000811101C084E08150F0CF81E0809395017B
:1044F00090CD109295018DCD82E0F8CF9091690119
:1045000081E089270E94A80A84CD80916B01909157
:104510006C01C296893EE3E09E0708F499CF88EECD
:1045200093E096CF80916B0190916C01C297843695
:10453000910508F08DCF84E690E08ACF80910B043E
:1045400080FF1CC0282F2E7F20930B0430910C0479
:1045500040910D0450910E0460910F04709110046D
:1045600080911104909112040E9430138091D20224
:1045700081608093D2020E94F50F4BCD81608093C1
:104580000B0461E086950E94711443CD45EA54E125
:104590006FEA74E10E949C063CCD4FEA54E165EA63
:1045A00074E1F8CF49E254E163E374E1F3CF43E30C
:1045B00054E169E274E1EECF4FE054E16CE174E163
:1045C000E9CF4CE154E16FE074E1E4CF45EF53E112
:1045D00062E074E1DFCF42E054E165EF73E1DACFEE
:1045E0004DE354E167E574E1D5CF47E554E16DE370
:1045F00074E1D0CF61E081E0C6CF0E94BA1409CD4A
:10460000B7E7EB16BCE7FB0609F460C0E8E7EE1677
:10461000ECE7FE0609F45EC0F8018581E080F180D8
:10462000882309F49FC0C7010E941D12D82E682F4D
:10463000C7010E94EC08B7018D2D0E940F120E9445
:10464000D8077C01882ED8011596AC901597169640
:104650009C9092943FE093228091CF028770F1F07A
:10466000CA2CAA20E1F08F2D807F803451F080E2A7
:104670008E0D883098F0911004C08F2D807E80328E
:1046800069F08091A30282FF09C082E00E9487093D
:104690008091CF028770CC24C3948111C12CBF2C90
:1046A000B2942FE0B222BBE0BB1508F4C3C0EB2DDF
:1046B000F0E0E05FFC4C0C94253281E00E949E0902
:1046C00043E062E081E00E945A09A3CC81E00E94AD
:1046D0007A09F6CF82E0FBCFF3E0EF16FCE7FF06A6
:1046E00071F160F4E1143CE7F306D1F081E0E816E3
:1046F0008CE7F80609F090CF0E942B119BE5E91694
:104700009CE7F90669F1ACE5EA16ACE7FA06F1F0C8
:10471000BAE5EB16BCE7FB0609F07ECF81E01DC0D1
:104720001092BA030E94240CEFEFF4E32CE0E15066
:10473000F0402040E1F700C000000E9469066FEFE2
:104740007FEF90E080E00E94C932D6CF8091A30233
:1047500082FB882780F991E089270E94E8145CCFCA
:1047600080E0FBCFC7010E94B808D82E64CFEF2DA0
:10477000EF70DE2E8F2D807F19F0D29490EFD9222A
:10478000AA20B9F0DD2069F080E28E0D883010F0AB
:10479000811009C08091BA03D82AD092BA030E942E
:1047A000E70B8E2D45C080911702D82AD0921702B0
:1047B000F6CF8E2D0E94010FDD20E1F180E28E0DFB
:1047C000883010F0811004C08D2D0E94A70806C00B
:1047D000D09480911702D822D09217020E94E70B42
:1047E00029C0FF2DFF70DF2E8F2D807F803219F0C2
:1047F000D29480EFD822882059F021E0821609F463
:1048000081C0AA2009F48DC0992009F44FC0C9CFF6
:104810008091A30282FD46C0AA20F1F1DD2039F08B
:104820008091BA03D82AD092BA030E94E70B80E0A5
:104830000E942D0FAB2DA850BB0B149710F40E94B3
:10484000A510CC20A9F08091CF0280FD11C0F80105
:1048500015828695869586950E949E09C8010E94BC
:104860004E1F8091CF028695869586950E947A0983
:1048700020E0D8014C9111965C91119712966C91A1
:10488000129713967C91139714968C911497159602
:104890009C910E947C12CDCB80E00E94010FDD2014
:1048A00049F292CFAA20A1F0911004C08D2D0E9450
:1048B000F70EC0CF31E09312BDCF809116029D2D2F
:1048C0009823D91609F4B6CFD82AD0921602B2CFBF
:1048D0009110B0CF8D2D0E94F00E909116028D2D6B
:1048E000892329F08D2D809589238093160280914C
:1048F000F4019D2D982309F49DCFD094D822D09215
:10490000F40198CFAA2029F085E0891508F492CF08
:10491000CDCF94E0991508F48DCF8D2D0E94F00E27
:1049200089CF9920D1F3A9E38A1209C1BFEFE7EE3D
:10493000F3E0B150E040F040E1F700C000008E2D00
:104940000E94010F77CF6A2D8E2D0E940A0B72CF25
:104950008F2D837091F5A1106DCF4E2D4295469508
:104960004770440F440F8E2D8F70042E01C0880FA6
:104970000A94EAF72E2D2071E4FE07C02FE030E004
:1049800001C0220F4A95EAF720953F2D36953695BE
:104990003370323069F050F440911802313029F010
:1049A000822B84230E94230945CF842B822BFACFAC
:1049B000282B809118028227F5CF8695AA2011F026
:1049C0008F2D8170882309F435CF4E2D4295469561
:1049D0004770440F440F8E2D8F70042E01C0880F36
:1049E0000A94EAF72E2D2071E4FE07C02FE030E094
:1049F00001C0220F4A95EAF720953F2D369536954E
:104A00003370323069F050F440918703313029F02F
:104A1000822B84230E944B090DCF842B822BFACF4B
:104A2000282B809187038227F5CF9F2D9F70F92E29
:104A3000AA2029F0892F0E949E098E2D38CF8E2D15
:104A40000E94F00E8F2D0E947A09F4CE8E2DA2EFD7
:104A50008A16B1F1A81570F0B0EF8B16D1F0E1EF26
:104A60008E1691F0AA2009F45EC091109ACE8F2D77
:104A70008F712AC0F3EF8F1651F124EF8212F2CF1B
:104A80008091A30282FD2FC08F2D8F71AA20D9F2B1
:104A90001BC0AA2081F034E0391508F4CBCE2F2DAD
:104AA0002F7181E090E001C0880F2A95EAF790917C
:104AB00087038927AFCF85E0891508F4BBCEEFCFF8
:104AC0008F2D8F71A110BFCF0E949E09B3CE80E0C1
:104AD000AA2009F49FCF9F2D9F7181E001C0880F0C
:104AE0009A95EAF797CFAA2099F09F2D9F71F92EFA
:104AF000892F0E949E098091A30282FF07C0A8E02F
:104B0000FA9EC001112483608093CF028F2DDCCFE9
:104B100081E00E948709B1E0B91508F08BCE82E0F0
:104B20000E94870987CE992079F0893341F4EFEF0D
:104B3000F7EE23E0E150F0402040E1F7FECE8FE1B8
:104B40009EE40197F1F7F9CE8F2D8F717CCFB7E7F7
:104B5000EB16BCE7FB0609F4B0CDE8E7EE16ECE790
:104B6000FE0609F0B9CD82E0A9CDCF93DF93809105
:104B70000D02807F09F04DC080910C02882309F45A
:104B800048C0E0910A045091D103C0910802D0912D
:104B900007026091090270910A0247E05E17C9F1AD
:104BA0008E2F90E0E49FF0011124EE52FC4F2481FF
:104BB000222391F1489FF001499FF00D1124DF015C
:104BC000AE52BC4F11962C9111972C1325C02C91ED
:104BD0002D1322C015962C91159721111DC01296E8
:104BE0002D913C91261B370B283C3105A8F4809170
:104BF0000D028F70806180930D02E852FC4F80811E
:104C00008F708061808387E092E00E944E1F0E9437
:104C1000AE08DF91CF910895FC013196E770BECFC9
:104C2000A4E1B0E0E6E1F6E20C94C6318C0186E046
:104C3000F801DE011F9601900D928A95E1F7F801C7
:104C40008481E58097E0A92E92E0B92E90910B0225
:104C5000911128C0882319F1EE20F1F0C8010E94BB
:104C60005912F82E8823C1F087E0F801D501019090
:104C70000D928A95E1F780910B02813031F4809199
:104C80000702909108020E944C120E94B5258F2DB8
:104C90006496ECE00C94E231C8010E944E1FFF24A0
:104CA000F394F5CFD080C18082809380F0900C0285
:104CB0002091090230910A02A401421B530BFF20EC
:104CC00009F4D9C0483C510508F092C08823F9F294
:104CD0009091080280910D02282F207F09F056C084
:104CE000C91214C090910702D91210C0E11048C037
:104CF0008F70806180930D0287E092E00E944E1FCA
:104D000080910D02F8018683F12CC1CFE11038C0EB
:104D10006C2D8D2D0E94EC046C2D8D2D0E94EC04C9
:104D2000E82E8111F1CFDF86C88A8F8598890E948D
:104D30004C12292F22952F70243058F49F70223066
:104D400088F0992399F0F8019681907F79F4FE2CF0
:104D50009ECF2A5F2F70223068F0C8010E944E1F3C
:104D6000EF2CF5CF992311F0882389F3805E8830EA
:104D700070F3F3CF803F58F3815F833070F7E7CF54
:104D800080910D02816080930D02BECFC91207C0D1
:104D900090910702D91203C0EE2009F48DC0C8011A
:104DA0000E945912882309F477CFEE2009F474CFBA
:104DB00080910D02803288F0209107023091080224
:104DC000398728879B868A8690910B029C871D864F
:104DD0008E87CE0108960E944E1F87E0F801A7E05B
:104DE000B2E001900D928A95E1F70E94B52557CF68
:104DF00090910D02292F207F51F487E092E00E94CC
:104E00004E1F87E0F50111928A95E9F77DCF88233F
:104E100009F43DCF809108028C1110C080910702E7
:104E2000D8120CC0E1100AC09683C8010E944E1F20
:104E300087E0F50111928A95E9F729CFC8010E9410
:104E40005912882309F428CFEE2009F425CF809148
:104E50000D02803210F220910702309108023A834D
:104E600029839C828B8290910B029D831E828F836B
:104E7000CE010196B0CF483C5105D0F6882309F405
:104E80000ECFFE2CEE2009F407CF809108028C1182
:104E900020C080910702D8121CC080910D0280FDB5
:104EA0000FC0982F907F61F08683903F31F0982F4C
:104EB000907F905F8F70892B8683C8010E944E1F60
:104EC00087E0F801A7E0B2E001900D928A95E1F742
:104ED000DECEC8010E94591281117FCF80910D0250
:104EE000816080930D02C8010E944E1FD0CEABE1BD
:104EF000B0E0EDE7F7E20C94CE314E8B5F8B688F1C
:104F0000798F8A8F9B8F192F9111109217021D8A0A
:104F100086E0FE017696DE011F9601900D928A953D
:104F2000E1F70A8D002341F021E04F855889698916
:104F30007A89C8010E947C120B8B1C8B87E0FE01D2
:104F40003F96DE01189601900D928A95E1F7CE0109
:104F500008960E94102681112AC087E0FE0138962B
:104F6000DE01119601900D928A95E1F78C858823D8
:104F7000F1F02091D10330E0C901019687709927A3
:104F800040910A0448171906E9F097E0929FD00172
:104F9000939FB00D1124AE52BC4FFE01319601908B
:104FA0000D929A95E1F78093D1030E94AE0817E025
:104FB00080910A049091D103891314C06B96E4E0A8
:104FC0000C94EA311092BA030E94240C1092D1037F
:104FD00010920A0487E0E7E0F2E0DF011D928A9573
:104FE000E9F7E5CF819FC00111248E529C4F0E94AA
:104FF0001026882319F380910A0490E001968770A7
:10500000992780930A04D4CFA6E0B0E0EAE0F8E262
:105010000C94CE310E94671A8C01809119029091F4
:105020001A028017910781F019821A820E94671A6A
:10503000682F49815A81792F80E090E00E9477277C
:1050400010931A02009319022696E4E00C94EA31B8
:105050001F921FB61F9211248F939F93AF93BF93FC
:105060008091B403811113C08091B5039091B60370
:10507000A091B703B091B8034196A11DB11D8093D3
:10508000B5039093B603A093B703B093B803BF9151
:10509000AF919F918F911F901FBE1F901895CDB714
:1050A000DEB7A6970FB6F894DEBF0FBECDBF85B7AB
:1050B000806885BF85B7806885BF84B7877F84BFD8
:1050C0000FB6F894A8958091600088618093600085
:1050D000109260000FBE80E890E00FB6F8948093C5
:1050E0006100909361000FBE83E997E09093E10126
:1050F0008093E0010E940B050E94AC058091E200C4
:1051000084608093E20078948091C7038823A1F0A3
:105110001091E9001F709091EC00892F817090FD33
:1051200080E8182B1092E9008091E80083FD0E942E
:10513000300C1F701093E90082E084BD93E095BDB0
:105140009AEF97BD80936E00109294021092950290
:1051500010929602109297020E94AA12811102C028
:105160000E94D0110E94D010809300018091000114
:10517000882309F46BC010927D018EE180937E013B
:105180000E94801081110E944A308091000180911C
:10519000000194E0811190E09093A10284E0891BCA
:1051A0008093A00284EF0E94C10785EF0E94C1078F
:1051B00086EF0E94C10787EF0E94C1070EEA11E047
:1051C00054EBE52E51E0F52ED8018D918D018F3FE6
:1051D00011F00E94C107E016F106B1F788E0EFEA8E
:1051E000F2E0DF01882E1D928A94E9F7E8E9F2E007
:1051F000DF011D928A95E9F70E94FF14811102C018
:105200000E94121782E090E00E9487328093A502EC
:1052100084E090E00E9495329093A3028093A202D2
:105220000E94951DEFE3FCE93197F1F700C0000003
:105230000E94951D8091AF0280FF0CC06FEF7FEF41
:1052400090E080E00E94C9320E9469068EE180935E
:105250007D0194CF83E090E00E9487320E94230971
:10526000809187030E94260991E0833009F090E045
:10527000892F0E9437090E948010882309F4A6C153
:1052800080E08093A80380E8809313040E94042F99
:105290006BE070E087E592E00E94C3128823E9F199
:1052A0008091A80365E070E081FD92C182E592E003
:1052B0000E94C312882389F16DE070E080E492E0DF
:1052C0000E94C312882349F10E947A06605A7541F0
:1052D0008F4F9F4F6093AA037093AB038093AC03EF
:1052E0009093AD03E6E1F4E080E092E0DF019C0101
:1052F0001D9221503040E1F7F0931D06E0931C060B
:105300008FEF9FEF909315048093140481E08093B6
:10531000B1038093AE031092A9038091A40281117E
:1053200076C00E94FF14811104C00E9412170E94CF
:10533000CB1488E090E00E948F324B015C0184E244
:1053400090E00E948732282F30E040E050E060E09B
:1053500070E080E090E000E20E9432322829392992
:105360004A295B2920930B0430930C0440930D04CD
:1053700050930E0460930F047093100480931104F3
:10538000909312048091D20283608093D2022E7F88
:1053900089F50E94CB1488E090E00E948F326B0167
:1053A0007C0184E290E00E948732282F30E040E0C8
:1053B00050E060E070E080E090E00E943232B22F76
:1053C000A32FF42FE52F5B0197018601BC29A12BA8
:1053D000FE29E32BB0930B04A0930C04F0930D046F
:1053E000E0930E0460930F04B092100480931104B4
:1053F000909312040E94A20680910B0480FF04C0C7
:1054000060E086950E94711481E08093A4020E945E
:105410008010811102C00E944D300E94D4180E9459
:10542000801081112EC08EE091E190935001809305
:105430004F0129E130E030934B0120934A0189E389
:1054400090E090934E0180934D014FE757E05093C9
:105450005801409357013093530120935201909388
:105460005601809355014CEB57E1509360014093F6
:105470005F0130935B0120935A0190935E0180930A
:105480005D010E94FF14882379F18FE090E00E9473
:105490008F328B01F82E862F8F770E94A717001F5F
:1054A0000027001F612F6370660F602B60939401CB
:1054B00012FB882780F90E94A80A812F887F09F4AF
:1054C0008AC0169516951695212F30E02F5F3F4F15
:1054D00042E3429FC001439F900D11240E949A0A0B
:1054E0008F2D8370809395010E94E81081E691E0F2
:1054F0009093B3038093B20337EBE32E32E0F32EA5
:1055000046E9C42ED12C8091C70300E112E1853019
:1055100009F4A2C00E94951D06EA12E09FEAA92E96
:1055200092E0B92E24EB822E21E0922E9401B50157
:10553000F8019191DB018D91BD01D9014D919D0142
:105540008423B2E0EE3AFB0709F492C0981789F37E
:105550000E948010382E612CF50171905F01D401FA
:105560008D914D017822F80121908F01271431F19E
:10557000512C442443942724822D8421B9F03320D4
:10558000A9F059A26AA20E94671A9CA38BA3F1E01A
:10559000FDA391E0842D872109F490E09EA349A109
:1055A0005AA16BA17CA18DA10E9477275394440C32
:1055B00026E05212E1CFF80131977082639438E00F
:1055C0006312CACF0E94B61011E057C082E059CED4
:1055D0008DE492E06DCE8AE892E080CF8091C7039F
:1055E000843041F10E94ED120E94921C1092B4038B
:1055F00048E150E080E40FB6F894A895409360002D
:105600000FBE8093600083B7817F846083BF83B7C0
:10561000816083BF7894889583B78E7F83BF0FB6F0
:10562000F894A89580916000886180936000109242
:1056300060000FBE8091C603882371F00E94951D03
:10564000EFEAF2E0A4EBB1E081919D91892309F0AA
:10565000E9C2EE16FF06C1F78091C703853009F451
:10566000BDCF1092BA030E94240C0E94A51052CF05
:1056700098136ECF0E94042810E00E9480100E94B0
:10568000921C882339F00E94B6100E94731A0E945F
:10569000081304C00E94731A1111F9CF0E94A510BB
:1056A0009091AE02891721F08093AE020E947A0693
:1056B0008091C703843009F4DDC00E9480108823E4
:1056C00009F421CF0E947A062091BD0221116DC0FC
:1056D0000091B9021091BA022091BB023091BC0234
:1056E0004B015C01801A910AA20AB30A9501840158
:1056F000043F11402105310508F457C06093B902F9
:105700007093BA028093BB029093BC028091B7025F
:105710009091B80201969093B8028093B7021982D3
:105720008E010F5F1F4F21E050E040E060E089E014
:105730000E945315811106C08091B7029091B80262
:105740000A979CF181E08093BD0280938301998147
:10575000911101C080E0809384018091820110E06A
:10576000882329F00E94D01011E0811112E080916D
:105770008401882309F452C20E94D010811150C2C2
:1057800082E0182B0E94A1124B015C01DC01CB01CD
:105790008C7FBC01CD01612B86169706A806B90641
:1057A00011F00E94B2110E94E810809184018823B8
:1057B00009F4A9CE0E947A064B015C018091BE02D9
:1057C0009091BF02A091C002B091C102A5019401C5
:1057D000281B390B4A0B5B0BDA01C9010497A105A1
:1057E000B10580F119821A821B821C828E010F5F23
:1057F0001F4F24E050E040E060E08AE00E94531533
:105800008823C1F069817A818091890190918A0110
:105810000E94780A90938A01809389016B817C8130
:1058200080918B0190918C010E94780A90938C0159
:1058300080938B018092BE029092BF02A092C00220
:10584000B092C10280918E01882309F45CCE8091D0
:105850008D01898310E000E020E0AE014F5F5F4FD3
:1058600061E08BE00E945315882309F44CCE10921E
:105870008E0149CE83E08093E9008091E80082FFA9
:105880001CCF8091E80090E085FF05C00E942A05AA
:10589000882399F091E08091E8008B778093E8006D
:1058A000992309F40ACF8981EFEFE80FE33168F516
:1058B000F0E0E45EFC4C0C94253280E2A82EB12C82
:1058C0008E010F5F1F4F8091E80085FD0AC0809117
:1058D000E8008B778093E8000E942A05882399F3DB
:1058E000D9CF8091F100D8018D938D01B1E0AB1A31
:1058F000B10849F7CFCF1A828CE08B831AC08A8116
:10590000823001F128F4813061F08FEF898311C07A
:105910008330D9F08430C9F71B821C821D821E821D
:1059200008C00E947A060E942B326B837C838D8391
:105930009E8340E250E0BE016F5F7F4F82E00E9495
:105940009F0FBBCE0E94A112EECF2B81822F90E041
:10595000FE013496245E8830910558F7AC0141551C
:105960005D4FBC016C547E4FDA013C91DB014C91E0
:105970003423319301962813EECFDBCF8A81823016
:1059800049F0853011F680910B0480FF0CC00E9415
:105990004010CFCF6B817C818D819E810E942B3204
:1059A0000E94B211C6CF816080930B0460E086959F
:1059B0000E947114BECF4C816B818A810E94E011DC
:1059C0009827892798279E838D83B3CF2D813E8189
:1059D0003227232732274C816B818A810E94531101
:1059E000A8CF0E947911A5CF9A81923009F08DCF6E
:1059F0008830D9F1893009F462C08B81823009F195
:105A0000A8F4813009F095CF8C81B6E98B9FC00155
:105A100011246FEF70E00E94AC31462F20E06091BE
:105A20000D0480910C040E94561383CF8330C9F07B
:105A3000843009F07ECF20E040910E046D818C818E
:105A4000F2CF8C81882309F4A2CF80910B0481606E
:105A500080930B0460E086950E94711460E08C8155
:105A6000A7CF8C8180930F0464CF8B818230D9F0D3
:105A700070F4813009F05DCF80910E04EFEF8E9FBE
:105A8000C0011124B6010E94AC316C8352CF833027
:105A900099F0843009F04DCF80910C048C83809173
:105AA0000D048D8346CF80910B0480FF03C0869543
:105AB0008C833FCF80E0FCCF80910F04F9CF209101
:105AC0000B0430910C0440910D0450910E04609130
:105AD0000F047091100480911104909112040E949F
